20111107-10:52:22.133: 8=FIX.4.4|9=148|35=D|34=1080|49=TESTBUY1|52=20180920-18:14:19.508|56=TESTSELL1|11=636730640278898634|15=USD|21=2|38=7000|40=1|54=1|55=MSFT|60=20180920-18:14:19.492|10=092|
20111107-10:52:54.373: 8=FIX.4.4|9=289|35=8|34=1090|49=TESTSELL1|52=20180920-18:23:53.671|56=TESTBUY1|6=113.35|11=636730640278898634|14=3500.0000000000|15=USD|17=20636730646335310000|21=2|31=113.35|32=3500|37=20636730646335310000|38=7000|39=1|40=1|54=1|55=MSFT|60=20180920-18:23:53.531|150=F|151=3500|453=1|448=BRK2|447=D|452=1|10=151|
20111107-10:52:57.868: 8=FIX.4.4|9=75|35=A|34=1092|49=TESTBUY1|52=20180920-18:24:59.643|56=TESTSELL1|98=0|108=60|10=178|
20111107-10:53:57.601: 8=FIX.4.4|9=63|35=5|34=1091|49=TESTBUY1|52=20180920-18:24:58.675|56=TESTSELL1|10=138|
