30Jan10 05:52:38.510 [INFO] This is an example of a log file.
30Jan10 05:52:38.510 [INFO] No matter the format, Fix Log Analyzer is able to process any log and spot any FIX message in it.
30Jan10 05:52:38.510 [INFO]
30Jan10 05:52:38.554 [INFO] Session FIX.4.2:ABC->XYZ schedule is daily, 16:40:00 UTC - 16:35:00 UTC
30Jan10 05:52:38.554 [INFO] Created session: FIX.4.2:ABC->XYZ
30Jan10 05:52:38.632 [INFO] Waiting for successful log on
30Jan10 05:52:40.663 [INFO] 8=FIX.4.2|9=76|35=A|34=702|49=ABC|52=20100130-10:52:40.663|56=XYZ|95=4|96=1234|98=0|108=60|10=134|
30Jan10 05:52:40.678 [INFO] Initiated logon request
30Jan10 05:52:40.678 [INFO] 8=FIX.4.2|9=59|35=A|49=XYZ|56=ABC|34=710|52=20100130-10:52:36|98=0|108=60|10=103|
30Jan10 05:52:40.678 [INFO] Received logon response
30Jan10 05:52:40.678 [INFO] Received successful log on
30Jan10 05:53:40.830 [INFO] 8=FIX.4.2|9=51|35=0|34=703|49=ABC|52=20100130-10:53:40.830|56=XYZ|10=249|
30Jan10 05:53:40.877 [INFO] 8=FIX.4.2|9=47|35=0|49=XYZ|56=ABC|34=711|52=20100130-10:53:36|10=057|
30Jan10 07:54:37.692 [INFO] 8=FIX.4.2|9=266|35=8|49=ABC|56=XYZ|50=AZ12|57=NA|34=833|52=20100130-08:00:51.992|55=GLD|48=PL11YA|167=FUT|207=LIFFE|1=AA1|37=ABC1|17=INDNTHDOG|58=Fill|200=201009|205=13|32=25|151=0|14=25|54=2|40=2|77=O|59=0|150=2|20=0|39=2|442=1|44=99.06|38=25|31=99.06|6=99.06|60=20100130-08:00:52|10=136|
30Jan10 07:54:38.420 [INFO] 8=FIX.4.2|9=262|35=8|49=ABC|56=XYZ|50=AZ12|57=NA|34=834|52=20100130-08:00:52.008|55=GLD|48=PL11YA|167=FUT|207=LIFFE|1=AA1|37=ABC2|17=93OOO|58=Fill|200=201009|205=13|32=25|151=0|14=25|54=2|40=2|77=O|59=0|150=2|20=0|39=2|442=1|44=99.06|38=25|31=99.06|6=99.06|60=20100130-08:00:52|10=053|
30Jan10 07:54:59.890 [INFO]
30Jan10 07:54:59.890 [INFO] End of the example